{
  "contractName": "Contract",
  "abi": [
    {
      "inputs": [],
      "stateMutability": "nonpayable",
      "type": "constructor"
    },
    {
      "inputs": [],
      "name": "counter",
      "outputs": [
        {
          "internalType": "uint256",
          "name": "",
          "type": "uint256"
        }
      ],
      "stateMutability": "view",
      "type": "function",
      "constant": true
    },
    {
      "inputs": [],
      "name": "diff",
      "outputs": [
        {
          "internalType": "uint256",
          "name": "",
          "type": "uint256"
        }
      ],
      "stateMutability": "view",
      "type": "function",
      "constant": true
    },
    {
      "inputs": [],
      "name": "entropy",
      "outputs": [
        {
          "internalType": "uint256",
          "name": "",
          "type": "uint256"
        }
      ],
      "stateMutability": "view",
      "type": "function",
      "constant": true
    },
    {
      "inputs": [],
      "name": "owner",
      "outputs": [
        {
          "internalType": "address",
          "name": "",
          "type": "address"
        }
      ],
      "stateMutability": "view",
      "type": "function",
      "constant": true
    },
    {
      "inputs": [],
      "name": "getCounter",
      "outputs": [
        {
          "internalType": "uint256",
          "name": "",
          "type": "uint256"
        }
      ],
      "stateMutability": "view",
      "type": "function",
      "constant": true
    },
    {
      "inputs": [],
      "name": "setCounter",
      "outputs": [],
      "stateMutability": "nonpayable",
      "type": "function"
    },
    {
      "inputs": [
        {
          "internalType": "address",
          "name": "_owner",
          "type": "address"
        }
      ],
      "name": "setOwner",
      "outputs": [
        {
          "internalType": "address",
          "name": "",
          "type": "address"
        }
      ],
      "stateMutability": "nonpayable",
      "type": "function"
    },
    {
      "inputs": [],
      "name": "random",
      "outputs": [
        {
          "internalType": "uint256",
          "name": "",
          "type": "uint256"
        }
      ],
      "stateMutability": "view",
      "type": "function",
      "constant": true
    },
    {
      "inputs": [
        {
          "internalType": "uint256",
          "name": "_entropy",
          "type": "uint256"
        }
      ],
      "name": "setEntropy",
      "outputs": [
        {
          "internalType": "uint256",
          "name": "",
          "type": "uint256"
        }
      ],
      "stateMutability": "nonpayable",
      "type": "function"
    },
    {
      "inputs": [],
      "name": "getOwner",
      "outputs": [
        {
          "internalType": "address",
          "name": "",
          "type": "address"
        }
      ],
      "stateMutability": "view",
      "type": "function",
      "constant": true
    }
  ],
  "bytecode": "0x608060405260f160025534801561001557600080fd5b5063ffffaaaa600281905550600a60008190555033600160006101000a81548173ffffffffffffffffffffffffffffffffffffffff021916908373ffffffffffffffffffffffffffffffffffffffff1602179055506106ac806100796000396000f3fe608060405234801561001057600080fd5b506004361061009e5760003560e01c80638ada066e116100665780638ada066e1461014b5780638d3945e4146101695780638da5cb5b14610173578063a0d7afb714610191578063cdcfb01a146101af5761009e565b806313af4035146100a357806347ce07cc146100d35780635ec01e4d146100f157806361bc221a1461010f578063893d20e81461012d575b600080fd5b6100bd60048036038101906100b891906103f1565b6101df565b6040516100ca919061042d565b60405180910390f35b6100db610228565b6040516100e89190610461565b60405180910390f35b6100f961022e565b6040516101069190610461565b60405180910390f35b610117610271565b6040516101249190610461565b60405180910390f35b610135610277565b604051610142919061042d565b60405180910390f35b6101536102a1565b6040516101609190610461565b60405180910390f35b6101716102aa565b005b61017b6102c3565b604051610188919061042d565b60405180910390f35b6101996102e9565b6040516101a69190610461565b60405180910390f35b6101c960048036038101906101c491906104a8565b6102ef565b6040516101d69190610461565b60405180910390f35b600081600160006101000a81548173ffffffffffffffffffffffffffffffffffffffff021916908373ffffffffffffffffffffffffffffffffffffffff16021790559050919050565b60025481565b600060646002544418426040516020016102499291906104f6565b6040516020818303038152906040528051906020012060001c61026c9190610551565b905090565b60005481565b6000600160009054906101000a900473ffffffffffffffffffffffffffffffffffffffff16905090565b60008054905090565b6000808154809291906102bc906105b1565b9190505550565b600160009054906101000a900473ffffffffffffffffffffffffffffffffffffffff1681565b60035481565b6000600160009054906101000a900473ffffffffffffffffffffffffffffffffffffffff1673ffffffffffffffffffffffffffffffffffffffff163373ffffffffffffffffffffffffffffffffffffffff1614610381576040517f08c379a000000000000000000000000000000000000000000000000000000000815260040161037890610656565b60405180910390fd5b8160028190559050919050565b600080fd5b600073ffffffffffffffffffffffffffffffffffffffff82169050919050565b60006103be82610393565b9050919050565b6103ce816103b3565b81146103d957600080fd5b50565b6000813590506103eb816103c5565b92915050565b6000602082840312156104075761040661038e565b5b6000610415848285016103dc565b91505092915050565b610427816103b3565b82525050565b6000602082019050610442600083018461041e565b92915050565b6000819050919050565b61045b81610448565b82525050565b60006020820190506104766000830184610452565b92915050565b61048581610448565b811461049057600080fd5b50565b6000813590506104a28161047c565b92915050565b6000602082840312156104be576104bd61038e565b5b60006104cc84828501610493565b91505092915050565b6000819050919050565b6104f06104eb82610448565b6104d5565b82525050565b600061050282856104df565b60208201915061051282846104df565b6020820191508190509392505050565b7f4e487b7100000000000000000000000000000000000000000000000000000000600052601260045260246000fd5b600061055c82610448565b915061056783610448565b92508261057757610576610522565b5b828206905092915050565b7f4e487b7100000000000000000000000000000000000000000000000000000000600052601160045260246000fd5b60006105bc82610448565b91507fffffffffffffffffffffffffffffffffffffffffffffffffffffffffffffffff82036105ee576105ed610582565b5b600182019050919050565b600082825260208201905092915050565b7f596f7520617265206e6f74206f776e6572000000000000000000000000000000600082015250565b60006106406011836105f9565b915061064b8261060a565b602082019050919050565b6000602082019050818103600083015261066f81610633565b905091905056fea26469706673582212200bd45073a76043fa40d7a995f3edf7043dea6c67c7f553f689aacb629a92655064736f6c634300080f0033",
  "immutableReferences": {},
  "source": "pragma solidity ^0.8.0;\n\ncontract Contract {\n    uint public counter;\n    address public owner;\n    uint public entropy = 0xf1;\n    uint public diff;\n\n    constructor(){\n        entropy = 0xffffaaaa;\n        counter = 10;\n        owner = msg.sender;\n    }\n\n    function getCounter() public view returns(uint){\n        return counter;\n    }\n\n    function setCounter() public{\n        counter++;\n    }\n\n    function setOwner(address _owner) public returns(address){\n        \n        return owner = _owner;\n    }\n\n    function random() public view returns (uint){\n        //diff = block.difficulty;\n        return uint(keccak256(abi.encodePacked((block.difficulty ^ entropy), block.timestamp))) % 100;\n    }\n    \n    function setEntropy(uint _entropy) public returns(uint){\n        require(msg.sender == owner, 'You are not owner');\n        return entropy = _entropy;\n    }\n    function getOwner() public view returns(address){\n        return owner;\n    }\n\n}\n",
  "sourcePath": "/home/ava/truffle/contracts/Contract.sol",
  "compiler": {
    "name": "solc",
    "version": "0.8.15+commit.e14f2714.Emscripten.clang"
  },
  "schemaVersion": "3.4.8",
  "updatedAt": "2022-07-15T13:24:14.918Z",
  "networkType": "ethereum",
  "devdoc": {
    "kind": "dev",
    "methods": {},
    "version": 1
  },
  "userdoc": {
    "kind": "user",
    "methods": {},
    "version": 1
  }
}